:10000000A7C00000C4C00000C2C00000C0C0000003
:10001000BEC00000BCC00000BAC00000B8C00000F4
:10002000B6C00000B4C00000AAC30000B0C0000009
:10003000AEC00000ACC00000AAC00000A8C0000014
:10004000A6C00000A4C00000A2C00000A0C0000024
:100050009EC000009CC000009AC0000098C0000034
:1000600096C0000094C0000092C0000090C0000044
:100070008EC000008CC000008AC0000088C0000054
:1000800086C0000084C0000082C0000080C0000064
:100090007EC000007CC000001A034F0070006500A5
:1000A0006E00500069007000650020004F004E0097
:1000B000450000001E034F00700065006E005000F8
:1000C00069007000650020004C0061006200730050
:1000D0002E0000000403090409026500020100C0AB
:1000E0003209040000000101000009240100010997
:1000F00000010109040100020103000007240100BE
:100100000141000624020101000624020202000946
:100110002403010301020100092403020401010177
:100120000009050102400005000005250101010943
:10013000058202400005000005250101031201109F
:100140000100000008501D106000000102000100C5
:1001500011241FBECFEFD0E2DEBFCDBF17E0A0E07D
:10016000B1E0E6E6FDE100E00BBF02C007900D92B2
:10017000A036B107D9F71BBE18E0A0E6B7E001C072
:100180001D92AE30B107E1F78CD10C94B10E38CF8F
:1001900084B7877F84BF88E10FB6F89480936000AE
:1001A000109260000FBE90E080E80FB6F894809344
:1001B0006100909361000FBE589A599A5A9A88D656
:1001C00087D6B6C6CF9343D790938F0780938E0779
:1001D000009709F4E2C00E945109209190073091E4
:1001E0009107009709F4A0C02115310569F40E9418
:1001F000630C0E94230B0E944B0B81E090E09093D4
:10020000910780939007C9C08FD70E940B09009770
:1002100009F4C3C06091E2077091E3078091F4078D
:100220009091F5076817790709F45AC06091E607BD
:100230007091E7078091F8079091F907681779079F
:1002400031F48091FC079091FD07009721F0809197
:100250007C0790E0A8D66091F40780918907680F29
:1002600080917C074FE79AD60E94440E009789F050
:10027000C0918007809189072091F4073091F5079C
:10028000A901480F511DCA01F8D7682F8C2F4FE7DD
:1002900085D68091E2079091E3078F3F910509F49D
:1002A00041C060918907680F80917C074091E40705
:1002B00070D60E94440E0097A9F1C09180078091EA
:1002C00089072091E2073091E307A901480F511DEA
:1002D000CA01D3D7682F8C2F4091E4075AD622C089
:1002E0004091E4075091E5078091F6079091F70758
:1002F0004817590741F080918907680F711D809157
:100300007C0790E056D66091E6077091E7078091F0
:10031000F8079091F9076817790721F080917C0719
:1003200090E041D687D739C02115310551F1609150
:10033000F40780918907680F80917C074FE72ED6DC
:100340000E94440E009789F0C09180078091890730
:100350002091F4073091F507A901480F511DCA01FA
:100360008CD7682F8C2F4FE719D60E94750B1092EF
:100370009107109290071092F5071092F4070E94CF
:10038000460B96D7009719F49AD7009731F08091D1
:100390008E0790918F070E949D0CCF910895CF9268
:1003A000DF92EF92FF920F931F93CF93DF934FD67D
:1003B0009093E3078093E2072091F4073091F507CB
:1003C0008217930709F450C000E011E0EE24FF24E7
:1003D00081E0C82ED12CE6010E2C02C0CC0FDD1F0F
:1003E0000A94E2F72091F4073091F5072C233D237E
:1003F0008091E2079091E3078C239D23809590954F
:10040000282339232115310529F089E0F80160817D
:100410004FE7C4D52091E2073091E3072C233D2319
:100420008091F4079091F5078C239D2380959095FA
:10043000282339232115310529F089E0F80160814D
:100440004FE7A7D50894E11CF11C0F5F1F4FF8E0A0
:10045000EF16F10409F0BFCF8091E2079091E30716
:100460009093F5078093F40723D7009719F427D7C3
:10047000009771F08091E2079091E3070E949D0C34
:100480000E944A0E009721F4109291071092900753
:10049000DF91CF911F910F91FF90EF90DF90CF9060
:1004A000089510929107109290071092E30710920E
:1004B000E2071092F5071092F4076ADE78948A98A2
:1004C000899881E090E00BD50E94930ABBD532D584
:1004D00035D50097E1F30E944A0E009711F472DEC1
:1004E000F6CF5DDFF4CF923029F0933041F09130B8
:1004F000E9F417C085E690E0E8EDF0E01BC081303C
:1005000041F0813018F0823089F406C0E4EDF0E06B
:1005100005C0E4EBF0E002C0E8E9F0E0849190E08F
:1005200009C082E190E0EDE3F1E004C080E090E0FA
:10053000E0E0F0E0DA011196FC93EE930895982F35
:100540002AC09093E900981739F07091EC0020913F
:10055000ED005091F00003C0242F762F50E021FFD2
:1005600019C03091EB003E7F3093EB003091ED00ED
:100570003D7F3093ED003091EB0031603093EB0024
:100580007093EC002093ED005093F0002091EE006A
:1005900027FF08C09F5F9730A0F28F708093E9001B
:1005A00081E0089580E008950F931F93CF93DF9328
:1005B000162FEC0100E02AC09881992329F16B8164
:1005C000E981FA812C81892F8F70873018F5629527
:1005D000660F660F607C991F9927991F692B22303F
:1005E00010F096E001C092E028E030E040E003C067
:1005F0004F5F220F331F2E173F07D0F34295407FE6
:10060000492B9DDF882331F00F5F25960117A1F656
:1006100081E001C080E0DF91CF911F910F9108959B
:100620008091980787FF13C004C0809197078823A3
:10063000B9F08091E80082FFF8CF8091E8008B77D5
:100640008093E800089580919707882349F080916E
:10065000E80080FFF8CF8091E8008E778093E80073
:1006600008958091E4009091E50045E601C0C9013C
:100670002091EC0020FF23C02091E80020FD15C050
:1006800020919707222399F0253099F02091EB00D3
:1006900025FD11C02091E4003091E50028173907AD
:1006A00039F3415021F784E0089580E0089582E015
:1006B000089583E0089581E0089580E008952091F1
:1006C000E80022FFDDCFF9CF0F931F93CF93DF9385
:1006D00049D050D0C8EDD0E088818F778883888159
:1006E0008068888388818F7D8883E7EDF0E0808152
:1006F0008068808319BC109297071092930710921C
:1007000095071092940700EE10E0F80180818B7F2E
:10071000808388818160888380E060E042E00FDF31
:10072000E1EEF0E080818E7F8083E2EEF0E0808178
:1007300081608083808188608083F80180818E7FE2
:100740008083888180618883DF91CF911F910F9191
:100750000895E7EDF0E080818160808381E08093FF
:100760009607B2CFE8EDF0E080818C7F8083109215
:10077000E20008951092DA001092E10008951F92AD
:100780000F920FB60F920BB60F9211242F933F9337
:100790004F935F936F937F938F939F93AF93BF9389
:1007A000EF93FF938091E10082FF0AC08091E20005
:1007B00082FF06C08091E1008B7F8093E10019D316
:1007C0008091DA0080FF1DC08091D80080FF19C0A1
:1007D0008091DA008E7F8093DA008091D90080FFCB
:1007E0000CC08CE089BD8EE089BD09B400FEFDCF50
:1007F00081E080939707EED304C019BC109297074D
:10080000F2D38091E10080FF18C08091E20080FF68
:1008100014C08091E2008E7F8093E2008091E2001C
:1008200080618093E2008091D80080628093D8003C
:1008300019BC85E080939707DCD28091E10084FFAA
:100840002DC08091E20084FF29C08CE089BD8EE03C
:1008500089BD09B400FEFDCF8091D8008F7D8093C3
:10086000D8008091E1008F7E8093E1008091E200CA
:100870008F7E8093E2008091E20081608093E200AD
:1008800080919307882321F48091E30087FF02C0C1
:1008900084E001C081E080939707ABD28091E100B2
:1008A00083FF22C08091E20083FF1EC08091E1009F
:1008B000877F8093E10082E08093970710929307EF
:1008C0008091E1008E7F8093E1008091E2008E7F35
:1008D0008093E2008091E20080618093E20080E0FA
:1008E00060E042E02CDE85D2FF91EF91BF91AF91A5
:1008F0009F918F917F916F915F914F913F912F9138
:100900000F900BBE0F900FBE0F901F901895AF92D7
:10091000BF92CF92DF92EF92FF921F93CF93DF931C
:10092000EC017B016A019DDE182F8823A9F5C11413
:10093000D10439F0F60120813181E21AF30AC20FA5
:10094000D31FAA24BB2423C08091E80085FD16C0D4
:100950008091E8008E778093E8004CD2C114D104D6
:1009600049F0F601808191818A0D9B1D91838083DE
:1009700015E012C076DE882351F00DC08991809376
:10098000F1000894E108F1080894A11CB11CE114DD
:10099000F104D1F601C0182F812FDF91CF911F9163
:1009A000FF90EF90DF90CF90BF90AF90089520918F
:1009B0009E0730919F072617370720F4B901FC01E5
:1009C00020E037C061157105D1F72091E8002E773E
:1009D0002093E800F4CF80919707882309F43FC063
:1009E0008530C9F18091E80083FD37C08091E8002F
:1009F00082FD2BC08091E80080FF1BC08091F20037
:100A00009091F30006C021912093F1006150704055
:100A100001966115710519F088309105A0F321E068
:100A20008830910509F020E08091E8008E7780936E
:100A3000E8006115710579F6222369F606C08091F8
:100A40009707882361F0853061F08091E80082FF8C
:100A5000F6CF80E0089583E0089581E0089582E074
:100A6000089583E0089520919E0730919F072617EF
:100A7000370720F4B901FC0120E038C06115710589
:100A8000D1F72091E8002E772093E800F4CF8091F1
:100A90009707882309F440C08530D1F18091E800A0
:100AA00083FD38C08091E80082FD2CC08091E80071
:100AB00080FF1CC08091F2009091F30007C0249148
:100AC0002093F100319661507040019661157105D7
:100AD00019F08830910598F321E08830910509F0EC
:100AE00020E08091E8008E778093E8006115710521
:100AF00071F6222361F606C080919707882361F082
:100B0000853061F08091E80082FFF6CF80E00895A3
:100B100083E0089581E0089582E0089583E00895D8
:100B20000F931F93CF93DF93CDB7DEB7AC970FB67C
:100B3000F894DEBF0FBECDBF80E0E8E9F7E090910A
:100B4000F10091938F5F8830D1F76BD28091E800EC
:100B500083FF36C18091980720919907253009F4C9
:100B600084C0263040F42130A1F1213070F02330D0
:100B700009F026C12EC0283009F4F4C0293009F448
:100B800003C1263009F01CC194C0803821F082389E
:100B900009F016C108C08091940790919507992398
:100BA00071F082600CC080919C078F708093E90087
:100BB0009091EB0081E095FF80E01092E900909128
:100BC000E800977F9093E8008093F1001092F10085
:100BD000D4C0882319F0823009F0F2C090E08F7100
:100BE0009070009729F08230910509F0E9C00BC0A0
:100BF00080919A07813009F0E3C0233009F080E04A
:100C0000809395072CC080919A07882341F5209105
:100C10009C072F7009F4D4C02093E9008091EB0069
:100C200080FF1DC080919907833021F48091EB00F3
:100C3000806213C08091EB0080618093EB0081E0C3
:100C400090E002C0880F991F2A95E2F78093EA008E
:100C50001092EA008091EB0088608093EB00109284
:100C6000E9008091E800877F8BC0882309F0A8C045
:100C700010919A071F770FB7F8948091E800877F4B
:100C80008093E800CDDC8091E80080FFFCCF80916C
:100C9000E3008078812B8093E30080688093E300F9
:100CA000112311F083E001C082E0809397070FBF0A
:100CB00087C08058823008F083C080919A07909155
:100CC0009B0723E08C3D9207A9F583E08C838AE2A1
:100CD0008B835FB7F894DE01139680E090E04EE0DE
:100CE00061E2E42FF0E060935700E49180FF03C0DD
:100CF000E295EF704F5FEF702E2F30E0EA3018F082
:100D0000295C3F4F02C0205D3F4F13963C932E93CA
:100D10001297019612968431910519F75FBF809161
:100D2000E800877F8093E800CE0103966AE270E0D6
:100D30003EDE12C060919C07AE014F5F5F4FD3DB78
:100D4000BC01009709F43CC08091E800877F809344
:100D5000E80089819A8187DE8091E8008B77809313
:100D6000E8002EC0803861F58091E800877F80938D
:100D7000E800809193078093F1008091E8008E77DE
:100D80008093E8004DDC1CC08823D1F490919A0731
:100D90009230B0F48091E800877F8093E8009093D0
:100DA00093073EDC80919307882321F48091E30030
:100DB00087FF02C084E001C081E0809397071AD1C9
:100DC0008091E80083FF0AC08091EB0080628093ED
:100DD000EB008091E800877F8093E800AC960FB627
:100DE000F894DEBF0FBECDBFDF91CF911F910F9161
:100DF00008950895CF93809197078823A9F0809153
:100E0000E9008F709091EC0090FF02C0C0E801C033
:100E1000C0E0C82B1092E9008091E80083FF01C078
:100E20007FDECF70C093E900CF910895CF93DF9319
:100E3000EC011B8682E08C838987CE01019661E0FC
:100E4000B3DB882329F0CE01069661E0ADDB01C05B
:100E500080E0DF91CF910895FC01CB0120919707AD
:100E60002430A9F421812F702093E90064E070E020
:100E700040E050E04CDD882359F49091E80095FD66
:100E800007C09091E8009E779093E800089582E073
:100E9000089520919707243089F4FC0181818F7097
:100EA0008093E9008091F2009091F300009741F067
:100EB0008091E8008E778093E800D3CB82E008959C
:100EC00080E0089520919707243009F4E2CF089537
:100ED000819A829A579A8DB184708DB9089520E0D5
:100EE00030E016C05F9A4FE75CE263E0415050404B
:100EF0006040E1F700C000005F984FEB54ED61E007
:100F0000415050406040E1F700C000002F5F3F4F6C
:100F1000281739073CF308955F9A8FE795E8A9E011
:100F200081509040A040E1F700C000005F98089514
:100F300010CC089589E191E0C5DF5CCF8091600716
:100F40009091610708950F931F93CF93DF9300D083
:100F500000D0CDB7DEB7962F92959F709983862BE0
:100F60008A834B832C8309E111E0C801BE016F5FC6
:100F70007F4F72DFC8018DDF0F900F900F900F90A1
:100F8000DF91CF911F910F91089560EB48E720E02A
:100F9000DACF962F242F60E9492FD5CF962F242F13
:100FA00060E8492FD0CF262F205E220F60EE40E070
:100FB000CACF962F242F60EA492FC5CF462F60EC69
:100FC00020E0C1CF262F60EB47E0BDCF262F60EB9E
:100FD0004AE0B9CF8A9A899A81E090E090936107BC
:100FE00080936007089510926107109260078A9AB3
:100FF0008998089589E191E019DF882359F081E00B
:1010000090E090936107809360078A98899A82E0C4
:1010100090E065CF10926107109260078A9A8998D4
:1010200008950895E0918807F0E0EE0FFF1FEE0F9E
:10103000FF1FE65CFE4F82819381909301088093AD
:1010400000080895ECD1EECF86E090E0089582EAA2
:1010500097E060E04BE18BD14091A20750E06091B6
:10106000A30770E0CA0180719070959587959A01E9
:1010700020783070E3E035952795EA95E1F7822BEB
:10108000932B9A0127703070822B932B9A01207436
:10109000307035952795822B932B9B0124703070EF
:1010A000A4E0220F331FAA95E1F7822B932B9B011B
:1010B00022703070B6E0220F331FBA95E1F7822B11
:1010C000932B9B0128703070E5E0220F331FEA95C7
:1010D000E1F7822B932B880F991F90938F078093B2
:1010E0008E071092A1071092A00745FF06C021E0CD
:1010F00030E03093A1072093A00743FF09C020915F
:10110000A0073091A10724603093A1072093A00786
:1011100060FF09C02091A0073091A10722603093A1
:10112000A1072093A0070895EF92FF920F931F93BA
:10113000CF93DF93E0900008F090010800918E07B4
:1011400010918F0720E030E0E701A896EAE0F0E098
:101150004CC0B7FF49C0BF77AC01BD01402351234C
:1011600062237323CD01AA27BB27481759076A07B3
:101170007B07D1F5EE0FFF1FEE0FFF1FEE0DFF1DDA
:10118000DF01419151916191719177FDF9CF472F25
:10119000552766277727CA015093E3074093E20754
:1011A00012962C91129730E03093E5072093E407D4
:1011B0004D915D916D917C911397452F562F672F1F
:1011C000772750705093E7074093E6071092EB079C
:1011D0001092EA07F70120813181820F931F9093CB
:1011E000E3078093E20710C0319689919991A99104
:1011F000B9918F3F4FEF94074FEFA4074FEFB4071C
:1012000009F0A7CF8FEF90E0DF91CF911F910F9161
:10121000FF90EF90089582EE97E064EF77E04CE066
:1012200050E064D521E030E0009711F420E030E098
:10123000C9010895A4EFB7E0E2EEF7E08CE0019079
:101240000D928150E1F708950296880F991F880F3B
:10125000991FE0910008F0910108E80FF91F8081C3
:1012600091810895E0910008F0910108209189078B
:1012700084819581820F911D08959C018091890739
:10128000A901481B5109CA016CE070E01CD5EEE2CF
:10129000F1E0E80FF11D8081A901480F511DCA013D
:1012A00008958091A0079091A10781709070089592
:1012B0008091A0079091A10782709070089580910D
:1012C000A0079091A107847090700895BC0180914F
:1012D000B9008E7F8093B9008091B9008D7F809393
:1012E000B90080ED97E0DBD4603128F070E0605108
:1012F0007040759567956093B800089584E690E016
:10130000E5DFECEBF0E080818460808308953C9A17
:1013100084EA8093BC00089584E98093BC0008951A
:101320008BE590E02091BC0027FD02C00197D1F72A
:101330000895EFECF7E03197F1F700C000003C9A18
:101340008093BB0084E88093BC000895882329F033
:101350008091BC008F70806C04C08091BC008F7045
:1013600080688093BC0008958091BB000895EF923F
:10137000FF920F931F93CF93DF9300D0CDB7DEB7CB
:10138000182F042F69839A83C2DFCADF84EBD1DF71
:10139000C7DF6981862FCDDFC3DFB9DF85EBC9DF0A
:1013A000BFDFE12E9A81F92E07C081E0CFDFB8DFE1
:1013B000DBDFF70181937F018E2D811B8017A8F35E
:1013C000ABDF8091BC008B7F8093BC008091BC0020
:1013D00084608093BC0081E00F900F90DF91CF91EB
:1013E0001F910F91FF90EF9008951F93CF93DF937C
:1013F0000F92CDB7DEB7182F698389DF91DF84EBB9
:1014000098DF8EDF812F95DF8BDF6981862F91DF5B
:1014100087DF82DF0F90DF91CF911F9108956EDFFC
:101420008BE261E0E2DF8CE261E0DFDF8DE260E031
:10143000DCDF8EE260E0D9DF8FE261E0D6DF80E3BF
:1014400061E0D3DF81E36FEFD0DF82E362E0CDDFE5
:1014500081E465E0CADF82E462E0C7DF83E465E03F
:10146000C4DF84E462E0C1DF85E465E0BEDF86E4DA
:1014700062E0BBDF87E465E0B8DF88E462E0B5DF07
:1014800089E465E0B2DF8AE462E0AFDF8BE465E027
:10149000ACDF8CE462E0A9DF8DE465E0A6DF8EE4DA
:1014A00062E0A3DF8FE465E0A0DF80E562E09DDF1E
:1014B00081E565E09ADF82E562E097DF83E565E03C
:1014C00094DF84E562E091DF85E565E08EDF86E507
:1014D00062E08BDF87E565E088DF88E562E085DF35
:1014E0008DE560E082DF8EE56CE07FDF8BE76BE00F
:1014F0007CDF8DE764EC79DF8EE76FE776DF8FE7DF
:1015000060EB73CF9C012F5F3F4F84E690E0289FF4
:10151000B001299F700D389F700D112486E697E069
:1015200048E250E0F7C3CF93DF9310920708109280
:1015300006081092090810920808C2E8DAE080E074
:1015400090E0FE01099580917A0790917B072AEF40
:101550008130920729F019D080E090E0FE010995D2
:1015600061DDDF91CF9108959C012F5F3F4F84E6AD
:1015700090E0289FB001299F700D389F700D1124B5
:1015800086E697E048E250E0D5C31F93CF93DF9300
:1015900081E09AEF90937B0780937A0710927C0703
:1015A0008FE780937D0781E080937E07809380079B
:1015B0009EE6909381079AE09093820712E0109341
:1015C000840790E5909385079CE39093860710929B
:1015D000890710928A0780938C0710928D07C6E6C0
:1015E000D7E0CE0167E476E08ED382E4898F8D8FD9
:1015F00089A31AA280E090E0B7DFCE0164E576E02F
:1016000082D383E4898F8D8F89A31AA381E090E030
:10161000ABDF80E090E076DFC2E0D0E0CE01A4DF77
:101620002196CA30D105D1F710920708109206080A
:1016300080917F0780930C0810920D08F3DCDF91F6
:10164000CF911F9108950F931F93CF93DF93CCE712
:10165000D7E08E010D5F1F4F8881F8016081AEDCFD
:10166000F801319788816081B1DCF8013297888177
:101670006081A8DC24960C5F1F4FF7E0C838DF07B5
:1016800059F7DF91CF911F910F9108951092630741
:101690001092620708951F93CF93DF9380918D0777
:1016A00080FF1FC0C0E0D0E080918C0790E00C2E3E
:1016B00002C0959587950A94E2F780FF0EC0CE018F
:1016C000C3DD009751F010918407CE01BDDD60911C
:1016D0008907680F812F4FE75CDC2196C830D10560
:1016E00019F7DF91CF911F9108951F93CF93DF9347
:1016F00080918D0780FF1FC0C0E0D0E080918C07F3
:1017000090E00C2E02C0959587950A94E2F780FF31
:101710000EC0CE0199DD009751F010918407CE01E3
:1017200093DD60918907680F812F4FE737DC2196A1
:10173000C830D10519F7DF91CF911F910895BF925D
:10174000CF92DF92EF92FF920F931F93CF93DF938D
:1017500001C07DDCADDD0097E1F7B1DD0097C9F791
:1017600000E010E031E0E32EF12C71DC6C01D59447
:10177000C794C0E0D0E096010C2E02C035952795A5
:101780000A94E2F7C8010C2E02C0959587950A9439
:10179000E2F720FF1AC080FD33C0CE0155DD00976F
:1017A00079F1B0908407CE014FDD60918907680F11
:1017B0008B2D4FE7EEDBC7010C2E02C0880F991F5F
:1017C0000A94E2F7082B192B1BC080FF19C0CE0129
:1017D0003BDD0097A9F0B0908407CE0135DD609124
:1017E0008907680F8B2D4FE7D9DBC7010C2E02C08C
:1017F000880F991F0A94E2F7809590950823192382
:101800002196C830D10509F0B6CF52DD009721F4FA
:1018100056DD009709F4A9CF00938C0780918D07BE
:10182000816080938D0761DF80918407AEDBDF915B
:10183000CF911F910F91FF90EF90DF90CF90BF90CD
:10184000089560917D07862F90E08D379105CCF447
:1018500050918107252F30E02D37310594F44091C8
:101860008507242F30E02D3731055CF4862F8E5FFD
:1018700080937D075E5F509381074E5F409385079D
:1018800090E0089560917D07862F90E08330910568
:10189000CCF050918107252F30E02330310594F0B2
:1018A00040918507242F30E0233031055CF0862FEE
:1018B000825080937D07525050938107425040934D
:1018C000850790E00895809108089091090820917B
:1018D0000608309107082817390761F09093070828
:1018E000809306080FDE8091880780930408109289
:1018F000050898CB80910A0890910B0820910C085C
:1019000030910D082817390751F090930D088093F6
:101910000C0880937F0780938307809387078091CB
:101920000408909105082091880730E028173907AE
:1019300019F08093880776CB0895FF920F931F9339
:10194000CF93DF938C0115950795C801807F907028
:10195000803D910509F4B0C0813D91054CF4803B78
:10196000910509F410C1803C910509F05FC139C0AF
:10197000803E910509F456C0803F910509F056C19B
:101980009EDC0097A9F080918D0780FF02C08E7FBA
:1019900001C0816080938D0781E090E0A0DA01C0F2
:1019A00056DB86DC0097E1F78ADC0097C9F73EC179
:1019B0007FDC009709F43AC180918D0781FF02C056
:1019C0008D7F01C0826080938D0781E090E087DA8F
:1019D00001C03DDB6DDC0097E1F771DC0097C9F7D2
:1019E00025C166DC009721F0809189078F5F06C0D2
:1019F00066DC009729F080918907815080938907E0
:101A000031DCEC01F82E80E06C2F4FE7C2DA01C028
:101A10001EDB4EDC0097E1F752DC0097C9F780E04F
:101A20006F2D25C045DC009729F1C0917C071ADC99
:101A3000682F8C2F4FE7ADDAC0E0D0E010C001DF97
:101A4000EC0180917C076C2FBDDA8FEF90E7A2E06C
:101A500081509040A040E1F700C00000F8DA28DC97
:101A6000009769F7F0907C07FDDB682F8F2D4FE71B
:101A700095DADEC024DC009709F4D8C0C0917C0759
:101A8000F1DB682F8C2F4FE784DAC0E0D0E010C084
:101A9000F9DEEC0180917C076C2F94DA8FEF90E7F0
:101AA000A2E081509040A040E1F700C00000CFDAF2
:101AB00006DC009769F7D6CFFBDB009799F18091A0
:101AC0006207909163078130910561F08FEF9FEF7E
:101AD000909305088093040881E090E09093630759
:101AE00080936207C0910408D0910508ADDA019790
:101AF000C817D90714F010DA0EC08091040890912D
:101B000005080196909305088093040881E090E011
:101B1000E6D901C09CDACCDB0097E1F7D0DB009777
:101B2000C9F784C0CCDB009709F480C080916207BC
:101B3000909163078230910561F081E490E0909389
:101B40000B0880930A0882E090E0909363078093EB
:101B5000620780910A0890910B088035910514F076
:101B6000DBD90AC0019690930B0880930A0881E0A4
:101B700090E0B5D901C06BDA9BDB0097E1F79FDB02
:101B80000097C9F753C094DB009709F44FC081E078
:101B900090E0A5D980916207909163078330910509
:101BA000A1F08FEF9FEF909309088093080883E0DE
:101BB00090E0909363078093620707C048DA21960C
:101BC00091E0C139D90719F409C0C0E0D0E070DB59
:101BD0000097A1F7A1E0C039DA078CF080910608E0
:101BE00090910708C1DC80910608909107089093B6
:101BF00009088093080882E090E071D910C08091B4
:101C00000808909109088930910514F085D907C01A
:101C10000196909309088093080801C018DA48DB00
:101C20000097E1F74CDB0097C9F702C0C0E0D0E0B5
:101C30000A35110501F10138110501F581E090E047
:101C40004ED97DDD81E090E04AD918C000DA2196B6
:101C5000CE010197B2E088359B076CF083E090E0FD
:101C60003ED993DC01C0F3D923DB0097E1F727DBF2
:101C70000097C9F703C01CDB009741F7DF91CF91B4
:101C80001F910F91FF90089580918D0790E08270D1
:101C90009070089580916407909165070895AA1B3C
:101CA000BB1B51E107C0AA1FBB1FA617B70710F047
:101CB000A61BB70B881F991F5A95A9F78095909579
:101CC000BC01CD01089597FB092E07260AD077FDA8
:101CD00004D0E5DF06D000201AF4709561957F4F9F
:101CE0000895F6F7909581959F4F0895FB01DC01CB
:101CF00004C08D910190801921F441505040C8F7E3
:101D0000881B990B0895FB01DC0101900D920020C6
:101D1000E1F70895DC01CB01FC01F999FECF06C083
:101D2000F2BDE1BDF89A319600B40D924150504099
:101D3000B8F70895DC01CB0102C02D9105D04150C8
:101D40005040D8F70895262FF999FECF1FBA92BDBB
:101D500081BD20BD0FB6F894FA9AF99A0FBE01968C
:061D60000895F894FFCF86
:101D66002F2F2F2F2F23292F36A12000000000020E
:101D760000A10100000000000001824000000101F6
:101D8600400000010000000102040706090A0400E1
:101D9600030003040004000300033A0612050505C8
:101DA600B1039A030E0300038C028302FF01F601BE
:101DB60052013C0000003C00000000000000000052
:101DC600000000000000000000000000000000000D
:101DD60000000000000000000000FEFDFE81010082
:101DE6007F00FEFDFC8101007F02FEFDF8810100FF
:101DF6007F04FEFDF68101007F05FEFDE081010006
:101E06007F07FEFDC08101007F09FEFD8081010084
:101E16007F0BFEFD408101007F0CFEFD408001002E
:101E26007F0EFEFDF88001007F10FEFDF4800100AC
:101E36007F11FEFDE08001007F13FEFDC0800100E2
:101E46007F15FEFDD88001007F17FEFD98800100FA
:101E56007F18FFFFFFFF5245434F52444552003E55
:101E66000000003F000000240000003000000037A2
:101E76000000003C000000430000000000000000DD
:101E860000000000000000FEFDFE8101007F00FE54
:101E9600FDFC8101007F02FEFDF88101007F04FC4C
:101EA600FDF48101007F05F8FDF08101007F06E069
:101EB600FDE08101007F07E0FDC08101007F09C0D0
:101EC600FD808101007F0AE0FD408101007F0B80DB
:101ED600FD008101007F0D80FD008001007F0FFF66
:101EE600FFFFFF5341434B50495041003E00000065
:101EF6003E00000024000000300000003700000013
:101F06003C0000004300000000000000000000004C
:101F160000000000FEFDFE8101007F00FEFDF8814D
:101F260001007F02FEFDF68101007F04FEFDE681D1
:101F360001007F05FEFDDE8101007F07FEFD9E811B
:101F460001007F09FEFD768101007F0AFEFD7E818C
:101F560001007F0BFEFDFE8001007F0CFFFFFFFFEF
:101F660055494C4C45414E4E205049504500440081
:101F76000000460000002E0000003A000000460067
:101F8600000000000000000000000000000000004B
:101F9600000000000000FEFDFE8101007F00FEFD46
:101FA600FC8101007F02FEFDF88101007F04FEFD39
:101FB600F281F8FDF08101007F06FEFDE281F8FD69
:101FC600E08101007F07FEFDDC81E0FDC0810100AC
:101FD6007F09FEFD9C81C0FD808101007F0BFEFD17
:101FE6001C8180FD008101007F0CFEFD1C8000FD30
:101FF600008001007F0EFFFFFFFF4752454154203E
:10200600484947484C414E44204241475049504573
:10201600004700000048000000300000003C0000BF
:102026000043000000480000004F000000000000D0
:10203600000000000000000000FEFDFE8111007F90
:1020460000FEFDFC8121007F01FEFDFA8101007F7B
:1020560002FEFDF88131007F03FEFDF48101007F61
:1020660004FEFDF28101FF7F05FCFDF081FEFDF619
:102076008101007F05F8FDE881FCFDE48101FF7F19
:1020860006F0FDE081FCFDEC8101007F06F6FDD047
:1020960081FEFDDE8101007F07F8FDC881FEFDC4DB
:1020A6008101FF7F08F0FDC081FEFDDC8101007F1C
:1020B60008E0FDA08101007F09E8FD8881F0FD9020
:1020C6008101FF7F0AE0FD808101007F0AE0FD407B
:1020D6008101007F0BE0FD0081FEFDFE80FEFD7E9E
:1020E6008101007F0CE0FD0080FEFDFC80E2FD60CA
:1020F6008101007F0DFEFDFA8001007F0EFEFDF8D6
:102106008001007F0FFEFDF48001007F10FCFDF0D2
:1021160080FEFDF68001007F11F0FDE08001007F6A
:1021260012F6FDD080FEFDDE8001007F13F0FDC0BB
:1021360080FEFDDC8001007F14E0FDA08001007FB1
:1021460015E0FD808001007F16E0FD408001007FE4
:1021560017FEFD7E8001007F18FEFD7C8001007F5A
:1021660019FFFFFFFF47414954412047414C45476E
:1021760041004700000048000000300000003C001D
:10218600000043000000480000004F00000000006F
:1021960000000000000000000000FEFDFE810100BE
:1021A6007F00FEFDFC8101007F01FEFDFA8101003A
:1021B6007F02FEFDF88101007F03FEFDF481010030
:1021C6007F04FCFDF081FEFDF68101007F05F0FD38
:1021D600E081FCFDEC8101007F06F6FDD081FEFD6D
:1021E600DE8101007F07F0FDC081FEFDDC8101007C
:1021F6007F08E0FDA08101007F09E0FD80810100EC
:102206007F0AE0FD408101007F0BE0FD0081FEFDBD
:10221600FE80FEFD7E8101007F0CE0FD0080FEFD5C
:10222600FC80E2FD608101007F0DFEFDFA80010069
:102236007F0EFEFDF88001007F0FFEFDF480010099
:102246007F10FCFDF080FEFDF68001007F11F0FDA1
:10225600E08001007F12F6FDD080FEFDDE800100E9
:102266007F13F0FDC080FEFDDC8001007F14E0FDE1
:10227600A08001007F15E0FD808001007F16E0FD53
:10228600408001007F17FEFD7E8001007F18FEFD65
:102296007C8001007F19FFFFFFFF47414954412021
:1022A60047414C4547410047414954412047414C2D
:1022B600454741004748420000000000000000007A
:1022C60000010202030303030404040404040404D7
:1022D60005050505050505050505050505050505A8
:1022E6000606060606060606060606060606060688
:1022F6000606060606060606060606060606060678
:102306000707070707070707070707070707070757
:102316000707070707070707070707070707070747
:102326000707070707070707070707070707070737
:102336000707070707070707070707070707070727
:102346000808080808080808080808080808080807
:1023560008080808080808080808080808080808F7
:1023660008080808080808080808080808080808E7
:1023760008080808080808080808080808080808D7
:1023860008080808080808080808080808080808C7
:1023960008080808080808080808080808080808B7
:1023A60008080808080808080808080808080808A7
:1023B6000808080808080808080808080808080897
:00000001FF
